{
  "contractName": "Ballot",
  "abi": [
    {
      "constant": true,
      "inputs": [
        {
          "name": "",
          "type": "uint256"
        }
      ],
      "name": "proposals",
      "outputs": [
        {
          "name": "id",
          "type": "uint256"
        },
        {
          "name": "name",
          "type": "string"
        },
        {
          "name": "voteFor",
          "type": "uint256"
        },
        {
          "name": "voteAgainst",
          "type": "uint256"
        },
        {
          "name": "totalvote",
          "type": "uint256"
        }
      ],
      "payable": false,
      "stateMutability": "view",
      "type": "function",
      "signature": "0x013cf08b"
    },
    {
      "constant": true,
      "inputs": [],
      "name": "voterCount",
      "outputs": [
        {
          "name": "",
          "type": "uint256"
        }
      ],
      "payable": false,
      "stateMutability": "view",
      "type": "function",
      "signature": "0x42169e48"
    },
    {
      "constant": true,
      "inputs": [],
      "name": "proposalCount",
      "outputs": [
        {
          "name": "",
          "type": "uint256"
        }
      ],
      "payable": false,
      "stateMutability": "view",
      "type": "function",
      "signature": "0xda35c664"
    },
    {
      "constant": true,
      "inputs": [
        {
          "name": "",
          "type": "uint256"
        }
      ],
      "name": "voters",
      "outputs": [
        {
          "name": "id",
          "type": "uint256"
        },
        {
          "name": "myaddress",
          "type": "address"
        },
        {
          "name": "weight",
          "type": "uint256"
        },
        {
          "name": "name",
          "type": "string"
        },
        {
          "name": "delegate",
          "type": "uint256"
        }
      ],
      "payable": false,
      "stateMutability": "view",
      "type": "function",
      "signature": "0xda58c7d9"
    },
    {
      "inputs": [],
      "payable": false,
      "stateMutability": "nonpayable",
      "type": "constructor",
      "signature": "constructor"
    },
    {
      "anonymous": false,
      "inputs": [
        {
          "indexed": false,
          "name": "id",
          "type": "uint256"
        },
        {
          "indexed": false,
          "name": "voterList",
          "type": "uint256[]"
        },
        {
          "indexed": false,
          "name": "name",
          "type": "string"
        },
        {
          "indexed": false,
          "name": "voteFor",
          "type": "uint256"
        },
        {
          "indexed": false,
          "name": "voteAgainst",
          "type": "uint256"
        },
        {
          "indexed": false,
          "name": "totalvote",
          "type": "uint256"
        }
      ],
      "name": "proposaladded",
      "type": "event",
      "signature": "0x844a27cae61ee4d77b66f639cb030d36fca860ce249d4c773bcf747690d6b5f4"
    },
    {
      "constant": false,
      "inputs": [
        {
          "name": "_name",
          "type": "string"
        }
      ],
      "name": "registrateVoter",
      "outputs": [],
      "payable": false,
      "stateMutability": "nonpayable",
      "type": "function",
      "signature": "0x4b4f7837"
    },
    {
      "constant": false,
      "inputs": [
        {
          "name": "_name",
          "type": "string"
        }
      ],
      "name": "addProposal",
      "outputs": [],
      "payable": false,
      "stateMutability": "nonpayable",
      "type": "function",
      "signature": "0x2fdae3c5"
    },
    {
      "constant": false,
      "inputs": [
        {
          "name": "_to",
          "type": "uint256"
        }
      ],
      "name": "delegateVote",
      "outputs": [],
      "payable": false,
      "stateMutability": "nonpayable",
      "type": "function",
      "signature": "0xb637d7a8"
    },
    {
      "constant": false,
      "inputs": [],
      "name": "cancleDelegation",
      "outputs": [],
      "payable": false,
      "stateMutability": "nonpayable",
      "type": "function",
      "signature": "0xbecd5620"
    },
    {
      "constant": false,
      "inputs": [
        {
          "name": "_proposalId",
          "type": "uint256"
        }
      ],
      "name": "voteFor",
      "outputs": [],
      "payable": false,
      "stateMutability": "nonpayable",
      "type": "function",
      "signature": "0x86a50535"
    },
    {
      "constant": false,
      "inputs": [
        {
          "name": "_proposalId",
          "type": "uint256"
        }
      ],
      "name": "voteAgainst",
      "outputs": [],
      "payable": false,
      "stateMutability": "nonpayable",
      "type": "function",
      "signature": "0x750e443a"
    }
  ],
  "bytecode": "0x608060405260008055600060015534801561001957600080fd5b50611f72806100296000396000f3fe6080604052600436106100a4576000357c0100000000000000000000000000000000000000000000000000000000900463ffffffff168063013cf08b146100a95780632fdae3c51461017957806342169e48146102415780634b4f78371461026c578063750e443a1461033457806386a505351461036f578063b637d7a8146103aa578063becd5620146103e5578063da35c664146103fc578063da58c7d914610427575b600080fd5b3480156100b557600080fd5b506100e2600480360360208110156100cc57600080fd5b8101908080359060200190929190505050610523565b6040518086815260200180602001858152602001848152602001838152602001828103825286818151815260200191508051906020019080838360005b8381101561013a57808201518184015260208101905061011f565b50505050905090810190601f1680156101675780820380516001836020036101000a031916815260200191505b50965050505050505060405180910390f35b34801561018557600080fd5b5061023f6004803603602081101561019c57600080fd5b81019080803590602001906401000000008111156101b957600080fd5b8201836020820111156101cb57600080fd5b803590602001918460018302840111640100000000831117156101ed57600080fd5b91908080601f016020809104026020016040519081016040528093929190818152602001838380828437600081840152601f19601f8201169050808301925050505050505091929192905050506105f1565b005b34801561024d57600080fd5b506102566106e3565b6040518082815260200191505060405180910390f35b34801561027857600080fd5b506103326004803603602081101561028f57600080fd5b81019080803590602001906401000000008111156102ac57600080fd5b8201836020820111156102be57600080fd5b803590602001918460018302840111640100000000831117156102e057600080fd5b91908080601f016020809104026020016040519081016040528093929190818152602001838380828437600081840152601f19601f8201169050808301925050505050505091929192905050506106e9565b005b34801561034057600080fd5b5061036d6004803603602081101561035757600080fd5b810190808035906020019092919050505061092a565b005b34801561037b57600080fd5b506103a86004803603602081101561039257600080fd5b8101908080359060200190929190505050610e00565b005b3480156103b657600080fd5b506103e3600480360360208110156103cd57600080fd5b8101908080359060200190929190505050611477565b005b3480156103f157600080fd5b506103fa6119c9565b005b34801561040857600080fd5b50610411611d60565b6040518082815260200191505060405180910390f35b34801561043357600080fd5b506104606004803603602081101561044a57600080fd5b8101908080359060200190929190505050611d66565b604051808681526020018573ffffffffffffffffffffffffffffffffffffffff1673ffffffffffffffffffffffffffffffffffffffff16815260200184815260200180602001838152602001828103825284818151815260200191508051906020019080838360005b838110156104e45780820151818401526020810190506104c9565b50505050905090810190601f1680156105115780820380516001836020036101000a031916815260200191505b50965050505050505060405180910390f35b6003602052806000526040600020600091509050806000015490806002018054600181600116156101000203166002900480601f0160208091040260200160405190810160405280929190818152602001828054600181600116156101000203166002900480156105d55780601f106105aa576101008083540402835291602001916105d5565b820191906000526020600020905b8154815290600101906020018083116105b857829003601f168201915b5050505050908060030154908060040154908060050154905085565b60016000815480929190600101919050555060c060405190810160405280600154815260200160006040519080825280602002602001820160405280156106475781602001602082028038833980820191505090505b508152602001828152602001600081526020016000815260200160008152506003600060015481526020019081526020016000206000820151816000015560208201518160010190805190602001906106a1929190611e54565b5060408201518160020190805190602001906106be929190611ea1565b50606082015181600301556080820151816004015560a0820151816005015590505050565b60005481565b60008090505b600054811115156107e75760006002600083815260200190815260200160002090503373ffffffffffffffffffffffffffffffffffffffff168160010160009054906101000a900473ffffffffffffffffffffffffffffffffffffffff1673ffffffffffffffffffffffffffffffffffffffff16141515156107d9576040517f08c379a000000000000000000000000000000000000000000000000000000000815260040180806020018281038252601a8152602001807f766f74657220616c72656164792072656769737465726174656400000000000081525060200191505060405180910390fd5b5080806001019150506106ef565b50600080815480929190600101919050555060c06040519081016040528060005481526020013373ffffffffffffffffffffffffffffffffffffffff1681526020016001815260200182815260200160008152602001600060405190808252806020026020018201604052801561086d5781602001602082028038833980820191505090505b5081525060026000805481526020019081526020016000206000820151816000015560208201518160010160006101000a81548173ffffffffffffffffffffffffffffffffffffffff021916908373ffffffffffffffffffffffffffffffffffffffff1602179055506040820151816002015560608201518160030190805190602001906108fc929190611ea1565b506080820151816004015560a0820151816005019080519060200190610923929190611e54565b5090505050565b6000339050600080905060008090505b60005481111515610b16578273ffffffffffffffffffffffffffffffffffffffff166002600083815260200190815260200160002060010160009054906101000a900473ffffffffffffffffffffffffffffffffffffffff1673ffffffffffffffffffffffffffffffffffffffff1614156109b757809150610b16565b60005481148015610a2a57508273ffffffffffffffffffffffffffffffffffffffff166002600083815260200190815260200160002060010160009054906101000a900473ffffffffffffffffffffffffffffffffffffffff1673ffffffffffffffffffffffffffffffffffffffff1614155b15610b09578273ffffffffffffffffffffffffffffffffffffffff166002600083815260200190815260200160002060010160009054906101000a900473ffffffffffffffffffffffffffffffffffffffff1673ffffffffffffffffffffffffffffffffffffffff16141515610b08576040517f08c379a00000000000000000000000000000000000000000000000000000000081526004018080602001828103825260138152602001807f756e726567697374726174656420766f7465720000000000000000000000000081525060200191505060405180910390fd5b5b808060010191505061093a565b5060006002600083815260200190815260200160002060040154141515610bf1576040517f08c379a000000000000000000000000000000000000000000000000000000000815260040180806020018281038252604e8152602001807f596f7520686176652064656c6567617465642020796f757220766f74652c207081526020017f6c656173652063616e636c6520796f75722064656c65676174696f6e20696e2081526020017f6f726465777220746f20766f746500000000000000000000000000000000000081525060600191505060405180910390fd5b60008090505b600360008581526020019081526020016000206001018054905081111515610ccb57816003600086815260200190815260200160002060010182815481101515610c3d57fe5b906000526020600020015414151515610cbe576040517f08c379a000000000000000000000000000000000000000000000000000000000815260040180806020018281038252601e8152602001807f796f757220766f746520686173206265656e207265676973747261746564000081525060200191505060405180910390fd5b8080600101915050610bf7565b50600360008481526020019081526020016000206004016000815480929190600101919050555060036000848152602001908152602001600020600501600081548092919060010191905055506003600084815260200190815260200160002060010181908060018154018082558091505090600182039060005260206000200160009091929091909150555060008090505b600260008381526020019081526020016000206005018054905081111515610dfa57600360008581526020019081526020016000206001016002600084815260200190815260200160002060050182815481101515610db957fe5b906000526020600020015490806001815401808255809150509060018203906000526020600020016000909192909190915055508080600101915050610d5e565b50505050565b6000339050600080905060008090505b60005481111515610fec578273ffffffffffffffffffffffffffffffffffffffff166002600083815260200190815260200160002060010160009054906101000a900473ffffffffffffffffffffffffffffffffffffffff1673ffffffffffffffffffffffffffffffffffffffff161415610e8d57809150610fec565b60005481148015610f0057508273ffffffffffffffffffffffffffffffffffffffff166002600083815260200190815260200160002060010160009054906101000a900473ffffffffffffffffffffffffffffffffffffffff1673ffffffffffffffffffffffffffffffffffffffff1614155b15610fdf578273ffffffffffffffffffffffffffffffffffffffff166002600083815260200190815260200160002060010160009054906101000a900473ffffffffffffffffffffffffffffffffffffffff1673ffffffffffffffffffffffffffffffffffffffff16141515610fde576040517f08c379a00000000000000000000000000000000000000000000000000000000081526004018080602001828103825260138152602001807f756e726567697374726174656420766f7465720000000000000000000000000081525060200191505060405180910390fd5b5b8080600101915050610e10565b50600060026000838152602001908152602001600020600401541415156110c7576040517f08c379a000000000000000000000000000000000000000000000000000000000815260040180806020018281038252604e8152602001807f596f7520686176652064656c6567617465642020796f757220766f74652c207081526020017f6c656173652063616e636c6520796f75722064656c65676174696f6e20696e2081526020017f6f726465777220746f20766f746500000000000000000000000000000000000081525060600191505060405180910390fd5b60008090505b6003600085815260200190815260200160002060010180549050811115156111a15781600360008681526020019081526020016000206001018281548110151561111357fe5b906000526020600020015414151515611194576040517f08c379a000000000000000000000000000000000000000000000000000000000815260040180806020018281038252601e8152602001807f796f757220766f746520686173206265656e207265676973747261746564000081525060200191505060405180910390fd5b80806001019150506110cd565b50600360008481526020019081526020016000206003016000815480929190600101919050555060036000848152602001908152602001600020600501600081548092919060010191905055506003600084815260200190815260200160002060010181908060018154018082558091505090600182039060005260206000200160009091929091909150555060008090505b6002600083815260200190815260200160002060050180549050811115156114715760036000858152602001908152602001600020600101600260008481526020019081526020016000206005018281548110151561128f57fe5b906000526020600020015490806001815401808255809150509060018203906000526020600020016000909192909190915055507f844a27cae61ee4d77b66f639cb030d36fca860ce249d4c773bcf747690d6b5f4600360008681526020019081526020016000206000015460036000878152602001908152602001600020600101600360008881526020019081526020016000206002016003600089815260200190815260200160002060030154600360008a815260200190815260200160002060040154600360008b81526020019081526020016000206005015460405180878152602001806020018060200186815260200185815260200184815260200183810383528881815481526020019150805480156113cd57602002820191906000526020600020905b8154815260200190600101908083116113b9575b50508381038252878181546001816001161561010002031660029004815260200191508054600181600116156101000203166002900480156114505780601f1061142557610100808354040283529160200191611450565b820191906000526020600020905b81548152906001019060200180831161143357829003601f168201915b50509850505050505050505060405180910390a18080600101915050611234565b50505050565b60003390506000809050600060026000858152602001908152602001600020600201549050808060010191505060008090505b60005481111515611686578373ffffffffffffffffffffffffffffffffffffffff166002600083815260200190815260200160002060010160009054906101000a900473ffffffffffffffffffffffffffffffffffffffff1673ffffffffffffffffffffffffffffffffffffffff16141561152757809250611686565b6000548114801561159a57508373ffffffffffffffffffffffffffffffffffffffff166002600083815260200190815260200160002060010160009054906101000a900473ffffffffffffffffffffffffffffffffffffffff1673ffffffffffffffffffffffffffffffffffffffff1614155b15611679578373ffffffffffffffffffffffffffffffffffffffff166002600083815260200190815260200160002060010160009054906101000a900473ffffffffffffffffffffffffffffffffffffffff1673ffffffffffffffffffffffffffffffffffffffff16141515611678576040517f08c379a00000000000000000000000000000000000000000000000000000000081526004018080602001828103825260138152602001807f756e726567697374726174656420766f7465720000000000000000000000000081525060200191505060405180910390fd5b5b80806001019150506114aa565b50836002600086815260200190815260200160002060000154141515611714576040517f08c379a000000000000000000000000000000000000000000000000000000000815260040180806020018281038252600a8152602001807f696e76616c69642069640000000000000000000000000000000000000000000081525060200191505060405180910390fd5b60006002600086815260200190815260200160002060020154141515156117c9576040517f08c379a000000000000000000000000000000000000000000000000000000000815260040180806020018281038252602f8152602001807f63616e27742064656c656761746520746f20736f6d656f6e652077686f20646581526020017f6c65676174652068697320766f7465000000000000000000000000000000000081525060400191505060405180910390fd5b81600260008681526020019081526020016000206000015414151515611857576040517f08c379a000000000000000000000000000000000000000000000000000000000815260040180806020018281038252601a8152602001807f63616e27742064656c656761746520746f20796f757273656c6600000000000081525060200191505060405180910390fd5b60016002600084815260200190815260200160002060020154141515611931576040517f08c379a00000000000000000000000000000000000000000000000000000000081526004018080602001828103825260478152602001807f796f752068617665206569746865722064656c65676174656420796f7572207681526020017f6f7465206f72206861766520766f7465732064656c656761746564206f6e207981526020017f6f757273656c660000000000000000000000000000000000000000000000000081525060600191505060405180910390fd5b836002600084815260200190815260200160002060040181905550600060026000848152602001908152602001600020600201819055508060026000868152602001908152602001600020600201819055506002600085815260200190815260200160002060050182908060018154018082558091505090600182039060005260206000200160009091929091909150555050505050565b6000339050600080905060006002600083815260200190815260200160002060040154905060008090505b60005481111515611bd0578373ffffffffffffffffffffffffffffffffffffffff166002600083815260200190815260200160002060010160009054906101000a900473ffffffffffffffffffffffffffffffffffffffff1673ffffffffffffffffffffffffffffffffffffffff161415611a7157809250611bd0565b60005481148015611ae457508373ffffffffffffffffffffffffffffffffffffffff166002600083815260200190815260200160002060010160009054906101000a900473ffffffffffffffffffffffffffffffffffffffff1673ffffffffffffffffffffffffffffffffffffffff1614155b15611bc3578373ffffffffffffffffffffffffffffffffffffffff166002600083815260200190815260200160002060010160009054906101000a900473ffffffffffffffffffffffffffffffffffffffff1673ffffffffffffffffffffffffffffffffffffffff16141515611bc2576040517f08c379a00000000000000000000000000000000000000000000000000000000081526004018080602001828103825260138152602001807f756e726567697374726174656420766f7465720000000000000000000000000081525060200191505060405180910390fd5b5b80806001019150506119f4565b506000600260008481526020019081526020016000206004015414151515611c60576040517f08c379a000000000000000000000000000000000000000000000000000000000815260040180806020018281038252601a8152602001807f796f7520646f206e6f74206861766520612064656c656761746500000000000081525060200191505060405180910390fd5b60026000828152602001908152602001600020600201600081548092919060019003919050555060005b600260008381526020019081526020016000206005018054905081111515611d2257826002600084815260200190815260200160002060050182815481101515611cd057fe5b90600052602060002001541415611d155760006002600084815260200190815260200160002060050182815481101515611d0657fe5b90600052602060002001819055505b8080600101915050611c8a565b506000600260008481526020019081526020016000206004018190555060016002600084815260200190815260200160002060020181905550505050565b60015481565b60026020528060005260406000206000915090508060000154908060010160009054906101000a900473ffffffffffffffffffffffffffffffffffffffff1690806002015490806003018054600181600116156101000203166002900480601f016020809104026020016040519081016040528092919081815260200182805460018160011615610100020316600290048015611e445780601f10611e1957610100808354040283529160200191611e44565b820191906000526020600020905b815481529060010190602001808311611e2757829003601f168201915b5050505050908060040154905085565b828054828255906000526020600020908101928215611e90579160200282015b82811115611e8f578251825591602001919060010190611e74565b5b509050611e9d9190611f21565b5090565b828054600181600116156101000203166002900490600052602060002090601f016020900481019282601f10611ee257805160ff1916838001178555611f10565b82800160010185558215611f10579182015b82811115611f0f578251825591602001919060010190611ef4565b5b509050611f1d9190611f21565b5090565b611f4391905b80821115611f3f576000816000905550600101611f27565b5090565b9056fea165627a7a723058204bed366fa342603b4048f4910bfeecc8230887a36967c0eb271c04b519ab0a3f0029",
  "source": "pragma solidity >=0.4.22 <0.7.0;\r\n\r\n/** \r\n * @title Ballot\r\n * @dev Implements voting process along with vote delegation\r\n */\r\ncontract Ballot {\r\n   \r\n    struct Voter {\r\n        uint id;\r\n        address myaddress;\r\n        uint weight; // weight is accumulated by delegation // if true, that person already voted\r\n       // person voters[i]  to\r\n        string name;\r\n        uint delegate;\r\n        uint[] delegatorList;\r\n\r\n    }\r\n \r\n\r\n    struct Proposal {\r\n        uint id;\r\n        uint[] voterList;\r\n        string name;   // short name (up to 32 bytes)\r\n       \r\n        uint voteFor; // number of accumulated votes\r\n        uint voteAgainst;\r\n        uint totalvote;\r\n    }\r\n    event proposaladded(\r\n        uint id,\r\n        uint[] voterList,\r\n        string name,   // short name (up to 32 bytes)\r\n        uint voteFor, // number of accumulated votes\r\n        uint voteAgainst,\r\n        uint totalvote\r\n        );\r\n    \r\n\r\n    uint public voterCount=0;\r\n\r\n    uint public proposalCount=0;\r\n\r\n\r\n    mapping(uint => Voter) public voters;\r\n\r\n    mapping(uint=>Proposal) public proposals;\r\n\r\n\r\n\r\n    constructor() public {\r\n\r\n       \r\n    }\r\n    function registrateVoter (string memory _name) public{\r\n\r\n        for(uint i=0;i<=voterCount;i++){\r\n            Voter storage test=voters[i];\r\n            require(test.myaddress!=msg.sender,\"voter already registerated\");\r\n        }\r\n        voterCount++;\r\n        voters[voterCount]=Voter(voterCount,msg.sender, 1,_name,0,new uint[](0));\r\n\r\n    }\r\n    function addProposal (string memory _name) public {\r\n        proposalCount ++;\r\n        proposals[proposalCount] = Proposal(proposalCount,new uint[](0), _name, 0,0,0);\r\n       \r\n    }\r\n    \r\n    \r\n    function delegateVote(uint  _to) public {\r\n        address delegator=msg.sender;\r\n        uint sender=0;\r\n        uint wt=voters[_to].weight;\r\n        wt++;        \r\n        for(uint i=0;i<=voterCount;i++){\r\n \r\n            if(voters[i].myaddress==delegator){\r\n                sender=i;\r\n                break;\r\n            }else if(i==voterCount && voters[i].myaddress!=delegator){\r\n                require (voters[i].myaddress==delegator,\"unregistrated voter\");    \r\n            }\r\n        }\r\n\r\n        require(voters[_to].id==_to,\"invalid id\");\r\n         require (voters[_to].weight!=0,\"can't delegate to someone who delegate his vote\");    \r\n          require (voters[_to].id!=sender,\"can't delegate to yourself\");    \r\n         require (voters[sender].weight==1,\"you have either delegated your vote or have votes delegated on yourself\");    \r\n        \r\n        voters[sender].delegate = _to;\r\n        voters[sender].weight=0;\r\n        \r\n\r\n        voters[_to].weight=wt;\r\n        voters[_to].delegatorList.push(sender);\r\n\r\n        \r\n       \r\n    }\r\n    function cancleDelegation () public{\r\n        address delegator=msg.sender;\r\n        uint sender=0;\r\n        uint del=voters[sender].delegate;\r\n\r\n        for(uint i=0;i<=voterCount;i++){\r\n            if(voters[i].myaddress==delegator){\r\n                sender=i;\r\n                break;\r\n            }else if(i==voterCount && voters[i].myaddress!=delegator){\r\n                require (voters[i].myaddress==delegator,\"unregistrated voter\");    \r\n            }\r\n        }\r\n        require (voters[sender].delegate!=0,\"you do not have a delegate\"); \r\n\r\n        voters[del].weight--;\r\n        for(uint i;i<=voters[del].delegatorList.length;i++){\r\n            if(voters[del].delegatorList[i]==sender){\r\n               voters[del].delegatorList[i]=0;\r\n            }\r\n        }\r\n\r\n        voters[sender].delegate = 0;\r\n        voters[sender].weight=1;\r\n\r\n     \r\n     \r\n    }\r\n    \r\n\r\n  \r\n    \r\n\r\n    function voteFor(uint  _proposalId) public {\r\n        address voter=msg.sender;\r\n        uint sender=0;\r\n        \r\n\r\n        for(uint i=0;i<=voterCount;i++){\r\n\r\n            if(voters[i].myaddress==voter){\r\n                sender=i;\r\n                break;\r\n            }else if(i==voterCount && voters[i].myaddress!=voter){\r\n                require (voters[i].myaddress==voter,\"unregistrated voter\");    \r\n            }\r\n        }\r\n\r\n        require (voters[sender].delegate==0,\"You have delegated  your vote, please cancle your delegation in ordewr to vote\");\r\n        for(uint i=0;i<=proposals[_proposalId].voterList.length;i++){\r\n\r\n            require (proposals[_proposalId].voterList[i]!=sender, \"your vote has been registrated\");\r\n            \r\n        }\r\n        proposals[_proposalId].voteFor++;\r\n        proposals[_proposalId].totalvote++;\r\n\r\n        proposals[_proposalId].voterList.push(sender);\r\n        for(uint i=0;i<=voters[sender].delegatorList.length;i++){\r\n            proposals[_proposalId].voterList.push(voters[sender].delegatorList[i]);\r\n\r\n\r\n        emit proposaladded(proposals[_proposalId].id,proposals[_proposalId].voterList,proposals[_proposalId].name,proposals[_proposalId].voteFor,proposals[_proposalId].voteAgainst,proposals[_proposalId].totalvote);\r\n\r\n        }\r\n\r\n\r\n    }\r\n\r\n    function voteAgainst(uint  _proposalId) public {\r\n       address voter=msg.sender;\r\n        uint sender=0;\r\n        \r\n\r\n        for(uint i=0;i<=voterCount;i++){\r\n\r\n            if(voters[i].myaddress==voter){\r\n                sender=i;\r\n                break;\r\n            }else if(i==voterCount && voters[i].myaddress!=voter){\r\n                require (voters[i].myaddress==voter,\"unregistrated voter\");    \r\n            }\r\n        }\r\n\r\n        require (voters[sender].delegate==0,\"You have delegated  your vote, please cancle your delegation in ordewr to vote\");\r\n        for(uint i=0;i<=proposals[_proposalId].voterList.length;i++){\r\n\r\n            require (proposals[_proposalId].voterList[i]!=sender, \"your vote has been registrated\");\r\n            \r\n        }\r\n        proposals[_proposalId].voteAgainst++;\r\n        proposals[_proposalId].totalvote++;\r\n\r\n        proposals[_proposalId].voterList.push(sender);\r\n        for(uint i=0;i<=voters[sender].delegatorList.length;i++){\r\n            proposals[_proposalId].voterList.push(voters[sender].delegatorList[i]);\r\n        }\r\n\r\n    \r\n    }\r\n}",
  "sourcePath": "D:/stvari/BITNO/blokchain/OZBILJNO/projekt/starter_kit/src/contracts/Ballot.sol",
  "compiler": {
    "name": "solc",
    "version": "0.5.0+commit.1d4f565a.Emscripten.clang"
  },
  "schemaVersion": "3.0.2",
  "updatedAt": "2020-08-21T14:33:15.996Z",
  "devdoc": {
    "details": "Implements voting process along with vote delegation\r",
    "methods": {},
    "title": "Ballot\r"
  },
  "userdoc": {
    "methods": {}
  }
}